S01500004175746F6D61746963446F6F722E73726563D4
S113000071C0000086C0000084C0000082C00000EF
S113001080C000007EC000007CC000007AC00000E8
S113002078C0000076C0000074C0000072C00000F8
S113003070C000006EC000006CC000006AC0000008
S113004068C0000066C0000064C0000062C0000018
S113005060C000005EC000005CC000005AC0000028
S113006058C0000056C0000054C0000052C0000038
S113007050C000004EC000004CC000004AC0000048
S113008048C0000046C0000044C0000042C0000058
S113009040C000003EC000003CC000003AC0000068
S11300A038C0000036C0000034C0000032C0000078
S11300B030C000002EC000002CC000002AC0000088
S11300C028C0000026C0000024C0000022C0000098
S11300D020C000001EC000001CC000001AC00000A8
S11300E018C0000011241FBECFEFD1E2DEBFCDBF88
S11300F000E00CBF12E0A0E0B2E0EAEDF1E000E0C5
S11301000BBF02C007900D92AE31B107D9F736D0BC
S113011062C076CF88E08093C10086E08093C200FD
S113012083E38093C4000895E0ECF0E0908195FFB0
S1130130FDCF8093C6000895CF93DF938FEF8BB9E3
S11301401092800080E286BB81E480938100B59B9D
S1130150FECF82E6E9DFC0918600D091870080E27D
S113016086BBB59BFECF88E6DFDF80918600909149
S113017087008C1B9D0BDF91CF910895CF93DF9364
S1130180CDB7DEB76E970FB6F894DEBF0FBECDBF06
S11301908AB11AB8BFDF8CE0E0E0F2E0DE0111962C
S11301A001900D928A95E1F7FE013D9682E1DF010F
S11301B01D928A95E9F78E010F5F1F4F7E01BEE005
S11301C0EB0EF11CF80181918F01AEDF0E151F05B6
S10D01D0C9F7B2DFFECFF894FFCFA9
S11301DA48656C6C6F20576F726C640000000000F5
S11101EA000000000000000000000000000003
S9030000FC
